{
  "contractName": "TokenCrowdSale",
  "abi": [
    {
      "inputs": [
        {
          "internalType": "contract Token",
          "name": "_token",
          "type": "address"
        },
        {
          "internalType": "uint256",
          "name": "rate_",
          "type": "uint256"
        },
        {
          "internalType": "uint256",
          "name": "softCap_",
          "type": "uint256"
        },
        {
          "internalType": "uint256",
          "name": "hardCap_",
          "type": "uint256"
        },
        {
          "internalType": "uint256",
          "name": "openingTime_",
          "type": "uint256"
        },
        {
          "internalType": "uint256",
          "name": "closingTime_",
          "type": "uint256"
        }
      ],
      "payable": false,
      "stateMutability": "nonpayable",
      "type": "constructor"
    },
    {
      "payable": true,
      "stateMutability": "payable",
      "type": "fallback"
    },
    {
      "constant": true,
      "inputs": [],
      "name": "hasClosed",
      "outputs": [
        {
          "internalType": "bool",
          "name": "",
          "type": "bool"
        }
      ],
      "payable": false,
      "stateMutability": "view",
      "type": "function"
    },
    {
      "constant": true,
      "inputs": [],
      "name": "hasOpen",
      "outputs": [
        {
          "internalType": "bool",
          "name": "",
          "type": "bool"
        }
      ],
      "payable": false,
      "stateMutability": "view",
      "type": "function"
    },
    {
      "constant": true,
      "inputs": [],
      "name": "openingTime",
      "outputs": [
        {
          "internalType": "uint256",
          "name": "",
          "type": "uint256"
        }
      ],
      "payable": false,
      "stateMutability": "view",
      "type": "function"
    },
    {
      "constant": true,
      "inputs": [],
      "name": "closingTime",
      "outputs": [
        {
          "internalType": "uint256",
          "name": "",
          "type": "uint256"
        }
      ],
      "payable": false,
      "stateMutability": "view",
      "type": "function"
    },
    {
      "constant": true,
      "inputs": [
        {
          "internalType": "address",
          "name": "_investor",
          "type": "address"
        }
      ],
      "name": "contribution",
      "outputs": [
        {
          "internalType": "uint256",
          "name": "",
          "type": "uint256"
        }
      ],
      "payable": false,
      "stateMutability": "view",
      "type": "function"
    },
    {
      "constant": true,
      "inputs": [],
      "name": "rate",
      "outputs": [
        {
          "internalType": "uint256",
          "name": "",
          "type": "uint256"
        }
      ],
      "payable": false,
      "stateMutability": "view",
      "type": "function"
    },
    {
      "constant": true,
      "inputs": [],
      "name": "weiRased",
      "outputs": [
        {
          "internalType": "uint256",
          "name": "",
          "type": "uint256"
        }
      ],
      "payable": false,
      "stateMutability": "view",
      "type": "function"
    },
    {
      "constant": true,
      "inputs": [],
      "name": "allowRefunds",
      "outputs": [
        {
          "internalType": "bool",
          "name": "",
          "type": "bool"
        }
      ],
      "payable": false,
      "stateMutability": "view",
      "type": "function"
    },
    {
      "constant": false,
      "inputs": [
        {
          "internalType": "address",
          "name": "_beneficiary",
          "type": "address"
        }
      ],
      "name": "buyTokens",
      "outputs": [
        {
          "internalType": "bool",
          "name": "success",
          "type": "bool"
        }
      ],
      "payable": true,
      "stateMutability": "payable",
      "type": "function"
    },
    {
      "constant": false,
      "inputs": [],
      "name": "refund",
      "outputs": [
        {
          "internalType": "bool",
          "name": "success",
          "type": "bool"
        }
      ],
      "payable": false,
      "stateMutability": "nonpayable",
      "type": "function"
    },
    {
      "constant": false,
      "inputs": [],
      "name": "finalization",
      "outputs": [],
      "payable": false,
      "stateMutability": "nonpayable",
      "type": "function"
    },
    {
      "constant": true,
      "inputs": [],
      "name": "goalReached",
      "outputs": [
        {
          "internalType": "bool",
          "name": "",
          "type": "bool"
        }
      ],
      "payable": false,
      "stateMutability": "view",
      "type": "function"
    }
  ],
  "bytecode": "0x60806040526000600960006101000a81548160ff02191690831515021790555034801561002b57600080fd5b50604051610e77380380610e77833981810160405260c081101561004e57600080fd5b810190808051906020019092919080519060200190929190805190602001909291908051906020019092919080519060200190929190805190602001909291905050508460058190555085600460006101000a81548173ffffffffffffffffffffffffffffffffffffffff021916908373ffffffffffffffffffffffffffffffffffffffff1602179055508360068190555082600781905550336000806101000a81548173ffffffffffffffffffffffffffffffffffffffff021916908373ffffffffffffffffffffffffffffffffffffffff1602179055508160018190555080600281905550505050505050610d2d8061014a6000396000f3fe6080604052600436106100a75760003560e01c806378abfbeb1161006457806378abfbeb146101c15780637d3d6522146101d8578063b427ce8f14610207578063b7a8807c14610236578063e2dc431014610261578063ec8ac4d8146102c6576100a7565b80631515bc2b146100b35780632c4e722e146100e25780632e91b39d1461010d5780634b6753bc14610138578063590e1ae31461016357806359c656df14610192575b6100b033610322565b50005b3480156100bf57600080fd5b506100c8610491565b604051808215151515815260200191505060405180910390f35b3480156100ee57600080fd5b506100f761049d565b6040518082815260200191505060405180910390f35b34801561011957600080fd5b506101226104a7565b6040518082815260200191505060405180910390f35b34801561014457600080fd5b5061014d6104b1565b6040518082815260200191505060405180910390f35b34801561016f57600080fd5b506101786104bb565b604051808215151515815260200191505060405180910390f35b34801561019e57600080fd5b506101a761063d565b604051808215151515815260200191505060405180910390f35b3480156101cd57600080fd5b506101d6610654565b005b3480156101e457600080fd5b506101ed610a09565b604051808215151515815260200191505060405180910390f35b34801561021357600080fd5b5061021c610a18565b604051808215151515815260200191505060405180910390f35b34801561024257600080fd5b5061024b610a33565b6040518082815260200191505060405180910390f35b34801561026d57600080fd5b506102b06004803603602081101561028457600080fd5b81019080803573ffffffffffffffffffffffffffffffffffffffff169060200190929190505050610a3d565b6040518082815260200191505060405180910390f35b610308600480360360208110156102dc57600080fd5b81019080803573ffffffffffffffffffffffffffffffffffffffff169060200190929190505050610322565b604051808215151515815260200191505060405180910390f35b6000600154421015801561033857506002544211155b61034157600080fd5b60003490506103508382610a86565b600061035b82610ad2565b905060075461037583600854610af090919063ffffffff16565b11156103cc576040517f08c379a0000000000000000000000000000000000000000000000000000000008152600401808060200182810382526024815260200180610cab6024913960400191505060405180910390fd5b6103e182600854610af090919063ffffffff16565b60088190555061043934600360003373ffffffffffffffffffffffffffffffffffffffff1673ffffffffffffffffffffffffffffffffffffffff16815260200190815260200160002054610af090919063ffffffff16565b600360003373ffffffffffffffffffffffffffffffffffffffff1673ffffffffffffffffffffffffffffffffffffffff168152602001908152602001600020819055506104868482610b0d565b600192505050919050565b60006002544211905090565b6000600554905090565b6000600854905090565b6000600254905090565b60006104c561063d565b61051a576040517f08c379a000000000000000000000000000000000000000000000000000000000815260040180806020018281038252602a815260200180610ccf602a913960400191505060405180910390fd5b6000600360003373ffffffffffffffffffffffffffffffffffffffff1673ffffffffffffffffffffffffffffffffffffffff1681526020019081526020016000205490506000811115610634576000600360003373ffffffffffffffffffffffffffffffffffffffff1673ffffffffffffffffffffffffffffffffffffffff168152602001908152602001600020819055503373ffffffffffffffffffffffffffffffffffffffff166108fc829081150290604051600060405180830381858888f193505050506106335780600360003373ffffffffffffffffffffffffffffffffffffffff1673ffffffffffffffffffffffffffffffffffffffff16815260200190815260200160002081905550600091505061063a565b5b60019150505b90565b6000600960009054906101000a900460ff16905090565b6000809054906101000a900473ffffffffffffffffffffffffffffffffffffffff1673ffffffffffffffffffffffffffffffffffffffff163373ffffffffffffffffffffffffffffffffffffffff1614610716576040517f08c379a000000000000000000000000000000000000000000000000000000000815260040180806020018281038252601b8152602001807f4f6e6c79206f776e65722063616e2066696e616c697a652049434f000000000081525060200191505060405180910390fd5b61071e610491565b610790576040517f08c379a00000000000000000000000000000000000000000000000000000000081526004018080602001828103825260178152602001807f43726f776473616c65206973207374696c6c206f70656e00000000000000000081525060200191505060405180910390fd5b610798610a09565b1561095857600460009054906101000a900473ffffffffffffffffffffffffffffffffffffffff1673ffffffffffffffffffffffffffffffffffffffff166390d2ffd36040518163ffffffff1660e01b8152600401602060405180830381600087803b15801561080757600080fd5b505af115801561081b573d6000803e3d6000fd5b505050506040513d602081101561083157600080fd5b810190808051906020019092919050505050600460009054906101000a900473ffffffffffffffffffffffffffffffffffffffff1673ffffffffffffffffffffffffffffffffffffffff1663e4cc18be6040518163ffffffff1660e01b8152600401602060405180830381600087803b1580156108ad57600080fd5b505af11580156108c1573d6000803e3d6000fd5b505050506040513d60208110156108d757600080fd5b8101908080519060200190929190505050506000809054906101000a900473ffffffffffffffffffffffffffffffffffffffff1673ffffffffffffffffffffffffffffffffffffffff166108fc6008549081150290604051600060405180830381858888f19350505050158015610952573d6000803e3d6000fd5b50610a07565b610960610b1b565b600460009054906101000a900473ffffffffffffffffffffffffffffffffffffffff1673ffffffffffffffffffffffffffffffffffffffff1663e4cc18be6040518163ffffffff1660e01b8152600401602060405180830381600087803b1580156109ca57600080fd5b505af11580156109de573d6000803e3d6000fd5b505050506040513d60208110156109f457600080fd5b8101908080519060200190929190505050505b565b60006006546008541015905090565b60006001544210158015610a2e57506002544211155b905090565b6000600154905090565b6000600360008373ffffffffffffffffffffffffffffffffffffffff1673ffffffffffffffffffffffffffffffffffffffff168152602001908152602001600020549050919050565b600073ffffffffffffffffffffffffffffffffffffffff168273ffffffffffffffffffffffffffffffffffffffff161415610ac057600080fd5b6000811415610ace57600080fd5b5050565b6000610ae960055483610b9190919063ffffffff16565b9050919050565b6000818301905082811015610b0457600080fd5b80905092915050565b610b178282610bc1565b5050565b6000809054906101000a900473ffffffffffffffffffffffffffffffffffffffff1673ffffffffffffffffffffffffffffffffffffffff163373ffffffffffffffffffffffffffffffffffffffff1614610b7457600080fd5b6001600960006101000a81548160ff021916908315150217905550565b600081830290506000831480610baf575081838281610bac57fe5b04145b610bb857600080fd5b80905092915050565b600460009054906101000a900473ffffffffffffffffffffffffffffffffffffffff1673ffffffffffffffffffffffffffffffffffffffff166340c10f1983836040518363ffffffff1660e01b8152600401808373ffffffffffffffffffffffffffffffffffffffff1673ffffffffffffffffffffffffffffffffffffffff16815260200182815260200192505050602060405180830381600087803b158015610c6a57600080fd5b505af1158015610c7e573d6000803e3d6000fd5b505050506040513d6020811015610c9457600080fd5b810190808051906020019092919050505050505056fe546865206365696c696e672068617320616c7265616479206265656e2072656163686564526566756e6473206973206e6f7420616c6c6f7765642c2049434f20697320696e2070726f6772657373a265627a7a72315820f869656e47a8d6cbc2388c98feb0c080f750824e97ab7a3d98228bf509d43c8b64736f6c63430005100032",
  "source": "// SPDX-License-Identifier: MIT\r\npragma solidity 0.5.16;\r\n\r\nimport \"./SafeMath.sol\";\r\nimport \"./Token.sol\";\r\n\r\n/// @title  Контракт ICO\r\n\r\ncontract TokenCrowdSale {\r\n\r\n  using SafeMath for uint256;\r\n  \r\n  address payable private owner; /// адрес владельца\r\n  \r\n  \r\n  uint256 private _openingTime; /// время открытия ICO (Unix Timestamp)\r\n  uint256 private _closingTime; /// время закрытия ICO (Unix Timestamp)\r\n  \r\n  /// @notice вклад в ICO\r\n  mapping(address => uint256) private contributions;\r\n  \r\n  Token private token; /// сам токен \r\n\r\n  uint256 private _rate; /// Сколько единиц токена вкладчик получит за 1 wei\r\n  \r\n  uint256 private _softCap; /// нижний потолок для успешного ICO (в wei)\r\n  uint256 private _hardCap; /// верхний потолок (в wei)\r\n\r\n  uint256 private _weiRaised; /// число собранных средств (в wei)\r\n\r\n  bool private _allowRefunds = false; /// переменная для возврата средств в случае неуспешного ICO\r\n\r\n\r\n  modifier onlyWhileOpen {\r\n    require(block.timestamp >= _openingTime && block.timestamp <= _closingTime);\r\n    _;\r\n  }\r\n  \r\n  /// @notice Получить информацию о том, закрыт ли ICO\r\n  function hasClosed() public view returns (bool) {\r\n    return block.timestamp > _closingTime;\r\n  }\r\n  \r\n  /// @notice Получить информацию о том, открыт ли ICO\r\n  function hasOpen() public view returns(bool) {\r\n      return block.timestamp >= _openingTime && block.timestamp <= _closingTime;\r\n  }\r\n\r\n  constructor(Token _token, uint256 rate_, uint256 softCap_, uint256 hardCap_, uint256 openingTime_, uint256 closingTime_) public {\r\n    _rate = rate_;\r\n    token = _token;\r\n    _softCap = softCap_;\r\n    _hardCap = hardCap_;\r\n    owner = msg.sender;\r\n    _openingTime = openingTime_;\r\n    _closingTime = closingTime_;\r\n  }\r\n  \r\n  /// @notice Получить время открытия ICO\r\n  function openingTime() public view returns(uint256) {\r\n      return _openingTime;\r\n  }\r\n  \r\n  /// @notice Получить время закрытия ICO\r\n  function closingTime() public view returns(uint256) {\r\n      return _closingTime;\r\n  }\r\n  \r\n  /// @notice Получить вклад в ICO\r\n  /// @param  _investor адрес инвестора\r\n  function contribution(address _investor) public view returns(uint256) {\r\n      return contributions[_investor];\r\n  }\r\n  \r\n  /// @notice Получить сколько единиц токена вкладчик получит за 1 wei\r\n  function rate() public view returns(uint256) {\r\n      return _rate;\r\n  }\r\n  \r\n  /// @notice Получить число собранных средств (в wei)\r\n  function weiRased() public view returns(uint256) {\r\n      return _weiRaised;\r\n  }\r\n  \r\n  /// @notice Получить информацию о разрешении на вывод средств (случай неуспешного ICO)\r\n  function allowRefunds() public view returns(bool) {\r\n      return _allowRefunds;\r\n  }\r\n  \r\n  /// @notice Функция для приема средств \r\n  function() external payable {\r\n    buyTokens(msg.sender);\r\n  }\r\n  \r\n  /// @notice Купить токен\r\n  /// @param _beneficiary адрес бенифициара (кому купленные токены переведутся)\r\n  function buyTokens(address _beneficiary) onlyWhileOpen public payable returns (bool success) {\r\n    \r\n    uint256 weiAmount = msg.value;\r\n    _preValidatePurchase(_beneficiary, weiAmount);\r\n\r\n    // calculate token amount to be created\r\n    uint256 tokens = _getTokenAmount(weiAmount);\r\n    \r\n    require(_weiRaised.add(weiAmount) <= _hardCap, \"The ceiling has already been reached\");\r\n\r\n    // update state\r\n    _weiRaised = _weiRaised.add(weiAmount);\r\n    contributions[msg.sender] = contributions[msg.sender].add(msg.value);\r\n    _processPurchase(_beneficiary, tokens);\r\n    return true;\r\n  }\r\n\r\n  /// @notice Валидация данных для покупки\r\n  function _preValidatePurchase(address _beneficiary,uint256 _weiAmount) internal pure {\r\n    require(_beneficiary != address(0));\r\n    require(_weiAmount != 0);\r\n  }\r\n\r\n  /// @notice Доставка токенов бенифициару\r\n  function _deliverTokens(address _beneficiary, uint256 _tokenAmount) internal {\r\n    token.mint(_beneficiary, _tokenAmount);\r\n  }\r\n\r\n  /// @notice Внутренняя функция продолжения процесса покупки токена\r\n  function _processPurchase(address _beneficiary, uint256 _tokenAmount) internal {\r\n    _deliverTokens(_beneficiary, _tokenAmount);\r\n  }\r\n\r\n  /// @notice Получить число токенов, соответствующих сумме (в wei)\r\n  /// @param _weiAmount сумма в wei\r\n  function _getTokenAmount(uint256 _weiAmount) internal view returns (uint256) {\r\n    return _weiAmount.mul(_rate);\r\n  }\r\n\r\n  /// @notice Разрешить вывод средств (ICO неуспешен)\r\n  function enableRefunds() private {\r\n      require(msg.sender == owner);\r\n      _allowRefunds = true;\r\n  }\r\n  \r\n  /// @notice Вывод средств с ICO (пользователь сам вызывает функцию)\r\n  function refund() public returns (bool success) {\r\n      require(allowRefunds(), 'Refunds is not allowed, ICO is in progress');\r\n      uint amount = contributions[msg.sender];\r\n      if (amount > 0) {\r\n            // It is important to set this to zero because the recipient\r\n            // can call this function again as part of the receiving call\r\n            // before `send` returns.\r\n            contributions[msg.sender] = 0;\r\n    \r\n            if (!msg.sender.send(amount)) {\r\n                // No need to call throw here, just reset the amount owing\r\n                contributions[msg.sender] = amount;\r\n                return false;\r\n            }\r\n        }\r\n        return true;\r\n    }\r\n  \r\n  /// @notice Закрытие ICO\r\n  function finalization() public {\r\n    require(msg.sender == owner, \"Only owner can finalize ICO\");\r\n    require(hasClosed(), \"Crowdsale is still open\");\r\n    if (goalReached()) {\r\n      token.unpause_token();\r\n      token.finishMint();\r\n      owner.transfer(_weiRaised);\r\n    } else {\r\n      enableRefunds();\r\n      token.finishMint();\r\n    }\r\n  }\r\n    \r\n  /// @notice Проверка достигнута ли цель\r\n  function goalReached() public view returns (bool) {\r\n    return _weiRaised >= _softCap;\r\n  }\r\n}",
  "sourcePath": "C:/Users/ILYA/Desktop/Vezdekod/ico/contracts/ICO.sol",
  "compiler": {
    "name": "solc",
    "version": "0.5.16+commit.9c3226ce.Emscripten.clang"
  },
  "schemaVersion": "3.3.3",
  "updatedAt": "2021-05-23T04:34:31.551Z",
  "networkType": "ethereum",
  "devdoc": {
    "methods": {
      "buyTokens(address)": {
        "params": {
          "_beneficiary": "адрес бенифициара (кому купленные токены переведутся)"
        }
      },
      "contribution(address)": {
        "params": {
          "_investor": "адрес инвестора"
        }
      }
    },
    "title": "Контракт ICO"
  },
  "userdoc": {
    "methods": {
      "allowRefunds()": {
        "notice": "Получить информацию о разрешении на вывод средств (случай неуспешного ICO)"
      },
      "buyTokens(address)": {
        "notice": "Купить токен"
      },
      "closingTime()": {
        "notice": "Получить время закрытия ICO"
      },
      "contribution(address)": {
        "notice": "Получить вклад в ICO"
      },
      "finalization()": {
        "notice": "Закрытие ICO"
      },
      "goalReached()": {
        "notice": "Проверка достигнута ли цель"
      },
      "hasClosed()": {
        "notice": "Получить информацию о том, закрыт ли ICO"
      },
      "hasOpen()": {
        "notice": "Получить информацию о том, открыт ли ICO"
      },
      "openingTime()": {
        "notice": "Получить время открытия ICO"
      },
      "rate()": {
        "notice": "Получить сколько единиц токена вкладчик получит за 1 wei"
      },
      "refund()": {
        "notice": "Вывод средств с ICO (пользователь сам вызывает функцию)"
      },
      "weiRased()": {
        "notice": "Получить число собранных средств (в wei)"
      }
    }
  }
}