{
  "contractName": "Token",
  "abi": [
    {
      "inputs": [
        {
          "internalType": "string",
          "name": "name_",
          "type": "string"
        },
        {
          "internalType": "string",
          "name": "symbol_",
          "type": "string"
        },
        {
          "internalType": "uint8",
          "name": "decimals_",
          "type": "uint8"
        }
      ],
      "payable": false,
      "stateMutability": "nonpayable",
      "type": "constructor"
    },
    {
      "anonymous": false,
      "inputs": [
        {
          "indexed": true,
          "internalType": "address",
          "name": "_owner",
          "type": "address"
        },
        {
          "indexed": true,
          "internalType": "address",
          "name": "_spender",
          "type": "address"
        },
        {
          "indexed": false,
          "internalType": "uint256",
          "name": "_value",
          "type": "uint256"
        }
      ],
      "name": "Approval",
      "type": "event"
    },
    {
      "anonymous": false,
      "inputs": [
        {
          "indexed": false,
          "internalType": "address",
          "name": "account",
          "type": "address"
        }
      ],
      "name": "Paused",
      "type": "event"
    },
    {
      "anonymous": false,
      "inputs": [
        {
          "indexed": true,
          "internalType": "address",
          "name": "_from",
          "type": "address"
        },
        {
          "indexed": true,
          "internalType": "address",
          "name": "_to",
          "type": "address"
        },
        {
          "indexed": false,
          "internalType": "uint256",
          "name": "_value",
          "type": "uint256"
        }
      ],
      "name": "Transfer",
      "type": "event"
    },
    {
      "anonymous": false,
      "inputs": [
        {
          "indexed": false,
          "internalType": "address",
          "name": "account",
          "type": "address"
        }
      ],
      "name": "Unpaused",
      "type": "event"
    },
    {
      "constant": true,
      "inputs": [],
      "name": "paused",
      "outputs": [
        {
          "internalType": "bool",
          "name": "",
          "type": "bool"
        }
      ],
      "payable": false,
      "stateMutability": "view",
      "type": "function"
    },
    {
      "constant": true,
      "inputs": [
        {
          "internalType": "address",
          "name": "_owner",
          "type": "address"
        }
      ],
      "name": "balanceOf",
      "outputs": [
        {
          "internalType": "uint256",
          "name": "balance",
          "type": "uint256"
        }
      ],
      "payable": false,
      "stateMutability": "view",
      "type": "function"
    },
    {
      "constant": true,
      "inputs": [],
      "name": "name",
      "outputs": [
        {
          "internalType": "string",
          "name": "",
          "type": "string"
        }
      ],
      "payable": false,
      "stateMutability": "view",
      "type": "function"
    },
    {
      "constant": true,
      "inputs": [],
      "name": "symbol",
      "outputs": [
        {
          "internalType": "string",
          "name": "",
          "type": "string"
        }
      ],
      "payable": false,
      "stateMutability": "view",
      "type": "function"
    },
    {
      "constant": true,
      "inputs": [],
      "name": "decimals",
      "outputs": [
        {
          "internalType": "uint8",
          "name": "",
          "type": "uint8"
        }
      ],
      "payable": false,
      "stateMutability": "view",
      "type": "function"
    },
    {
      "constant": true,
      "inputs": [],
      "name": "totalSupply",
      "outputs": [
        {
          "internalType": "uint256",
          "name": "",
          "type": "uint256"
        }
      ],
      "payable": false,
      "stateMutability": "view",
      "type": "function"
    },
    {
      "constant": true,
      "inputs": [],
      "name": "minter",
      "outputs": [
        {
          "internalType": "address",
          "name": "",
          "type": "address"
        }
      ],
      "payable": false,
      "stateMutability": "view",
      "type": "function"
    },
    {
      "constant": true,
      "inputs": [],
      "name": "mintingFinished",
      "outputs": [
        {
          "internalType": "bool",
          "name": "",
          "type": "bool"
        }
      ],
      "payable": false,
      "stateMutability": "view",
      "type": "function"
    },
    {
      "constant": true,
      "inputs": [
        {
          "internalType": "address",
          "name": "_owner",
          "type": "address"
        },
        {
          "internalType": "address",
          "name": "_spender",
          "type": "address"
        }
      ],
      "name": "allowance",
      "outputs": [
        {
          "internalType": "uint256",
          "name": "remaining",
          "type": "uint256"
        }
      ],
      "payable": false,
      "stateMutability": "view",
      "type": "function"
    },
    {
      "constant": false,
      "inputs": [
        {
          "internalType": "address",
          "name": "_to",
          "type": "address"
        }
      ],
      "name": "passMinterRole",
      "outputs": [
        {
          "internalType": "bool",
          "name": "success",
          "type": "bool"
        }
      ],
      "payable": false,
      "stateMutability": "nonpayable",
      "type": "function"
    },
    {
      "constant": false,
      "inputs": [
        {
          "internalType": "address",
          "name": "_account",
          "type": "address"
        },
        {
          "internalType": "uint256",
          "name": "_amount",
          "type": "uint256"
        }
      ],
      "name": "mint",
      "outputs": [
        {
          "internalType": "bool",
          "name": "success",
          "type": "bool"
        }
      ],
      "payable": false,
      "stateMutability": "nonpayable",
      "type": "function"
    },
    {
      "constant": false,
      "inputs": [],
      "name": "pause_token",
      "outputs": [
        {
          "internalType": "bool",
          "name": "success",
          "type": "bool"
        }
      ],
      "payable": false,
      "stateMutability": "nonpayable",
      "type": "function"
    },
    {
      "constant": false,
      "inputs": [],
      "name": "unpause_token",
      "outputs": [
        {
          "internalType": "bool",
          "name": "success",
          "type": "bool"
        }
      ],
      "payable": false,
      "stateMutability": "nonpayable",
      "type": "function"
    },
    {
      "constant": false,
      "inputs": [
        {
          "internalType": "uint256",
          "name": "_amount",
          "type": "uint256"
        }
      ],
      "name": "burn",
      "outputs": [
        {
          "internalType": "bool",
          "name": "success",
          "type": "bool"
        }
      ],
      "payable": false,
      "stateMutability": "nonpayable",
      "type": "function"
    },
    {
      "constant": false,
      "inputs": [
        {
          "internalType": "address",
          "name": "_to",
          "type": "address"
        },
        {
          "internalType": "uint256",
          "name": "_value",
          "type": "uint256"
        }
      ],
      "name": "transfer",
      "outputs": [
        {
          "internalType": "bool",
          "name": "result",
          "type": "bool"
        }
      ],
      "payable": false,
      "stateMutability": "nonpayable",
      "type": "function"
    },
    {
      "constant": false,
      "inputs": [
        {
          "internalType": "address",
          "name": "_from",
          "type": "address"
        },
        {
          "internalType": "address",
          "name": "_to",
          "type": "address"
        },
        {
          "internalType": "uint256",
          "name": "_amount",
          "type": "uint256"
        }
      ],
      "name": "transferFrom",
      "outputs": [
        {
          "internalType": "bool",
          "name": "success",
          "type": "bool"
        }
      ],
      "payable": false,
      "stateMutability": "nonpayable",
      "type": "function"
    },
    {
      "constant": false,
      "inputs": [
        {
          "internalType": "address",
          "name": "_spender",
          "type": "address"
        },
        {
          "internalType": "uint256",
          "name": "_value",
          "type": "uint256"
        }
      ],
      "name": "approve",
      "outputs": [
        {
          "internalType": "bool",
          "name": "success",
          "type": "bool"
        }
      ],
      "payable": false,
      "stateMutability": "nonpayable",
      "type": "function"
    },
    {
      "constant": false,
      "inputs": [
        {
          "internalType": "address",
          "name": "_to",
          "type": "address"
        },
        {
          "internalType": "uint256",
          "name": "_amount",
          "type": "uint256"
        }
      ],
      "name": "increaseAllowance",
      "outputs": [
        {
          "internalType": "bool",
          "name": "success",
          "type": "bool"
        }
      ],
      "payable": false,
      "stateMutability": "nonpayable",
      "type": "function"
    },
    {
      "constant": false,
      "inputs": [
        {
          "internalType": "address",
          "name": "_to",
          "type": "address"
        },
        {
          "internalType": "uint256",
          "name": "_amount",
          "type": "uint256"
        }
      ],
      "name": "decreaseAllowance",
      "outputs": [
        {
          "internalType": "bool",
          "name": "success",
          "type": "bool"
        }
      ],
      "payable": false,
      "stateMutability": "nonpayable",
      "type": "function"
    },
    {
      "constant": false,
      "inputs": [],
      "name": "finishMint",
      "outputs": [
        {
          "internalType": "bool",
          "name": "success",
          "type": "bool"
        }
      ],
      "payable": false,
      "stateMutability": "nonpayable",
      "type": "function"
    }
  ],
  "bytecode": "0x60806040526000600660016101000a81548160ff0219169083151502179055503480156200002c57600080fd5b5060405162002a2d38038062002a2d833981810160405260608110156200005257600080fd5b81019080805160405193929190846401000000008211156200007357600080fd5b838201915060208201858111156200008a57600080fd5b8251866001820283011164010000000082111715620000a857600080fd5b8083526020830192505050908051906020019080838360005b83811015620000de578082015181840152602081019050620000c1565b50505050905090810190601f1680156200010c5780820380516001836020036101000a031916815260200191505b50604052602001805160405193929190846401000000008211156200013057600080fd5b838201915060208201858111156200014757600080fd5b82518660018202830111640100000000821117156200016557600080fd5b8083526020830192505050908051906020019080838360005b838110156200019b5780820151818401526020810190506200017e565b50505050905090810190601f168015620001c95780820380516001836020036101000a031916815260200191505b506040526020018051906020019092919050505060016000806101000a81548160ff02191690831515021790555082600190805190602001906200020f929190620002cf565b50816002908051906020019062000228929190620002cf565b5080600660006101000a81548160ff021916908360ff16021790555033600360006101000a81548173ffffffffffffffffffffffffffffffffffffffff021916908373ffffffffffffffffffffffffffffffffffffffff16021790555033600460006101000a81548173ffffffffffffffffffffffffffffffffffffffff021916908373ffffffffffffffffffffffffffffffffffffffff1602179055505050506200037e565b828054600181600116156101000203166002900490600052602060002090601f016020900481019282601f106200031257805160ff191683800117855562000343565b8280016001018555821562000343579182015b828111156200034257825182559160200191906001019062000325565b5b50905062000352919062000356565b5090565b6200037b91905b80821115620003775760008160009055506001016200035d565b5090565b90565b61269f806200038e6000396000f3fe608060405234801561001057600080fd5b506004361061012c5760003560e01c80635c975abb116100ad578063a9059cbb11610071578063a9059cbb146105e5578063d7fc5b151461064b578063dd62ed3e146106a7578063e3c8b8261461071f578063e4cc18be146107415761012c565b80635c975abb1461046057806370a082311461048257806390d2ffd3146104da57806395d89b41146104fc578063a457c2d71461057f5761012c565b806323b872dd116100f457806323b872dd146102a4578063313ce5671461032a578063395093511461034e57806340c10f19146103b457806342966c681461041a5761012c565b806305d2035b1461013157806306fdde031461015357806307546172146101d6578063095ea7b31461022057806318160ddd14610286575b600080fd5b610139610763565b604051808215151515815260200191505060405180910390f35b61015b61077a565b6040518080602001828103825283818151815260200191508051906020019080838360005b8381101561019b578082015181840152602081019050610180565b50505050905090810190601f1680156101c85780820380516001836020036101000a031916815260200191505b509250505060405180910390f35b6101de61081c565b604051808273ffffffffffffffffffffffffffffffffffffffff1673ffffffffffffffffffffffffffffffffffffffff16815260200191505060405180910390f35b61026c6004803603604081101561023657600080fd5b81019080803573ffffffffffffffffffffffffffffffffffffffff16906020019092919080359060200190929190505050610846565b604051808215151515815260200191505060405180910390f35b61028e610ae2565b6040518082815260200191505060405180910390f35b610310600480360360608110156102ba57600080fd5b81019080803573ffffffffffffffffffffffffffffffffffffffff169060200190929190803573ffffffffffffffffffffffffffffffffffffffff16906020019092919080359060200190929190505050610aec565b604051808215151515815260200191505060405180910390f35b610332610ec0565b604051808260ff1660ff16815260200191505060405180910390f35b61039a6004803603604081101561036457600080fd5b81019080803573ffffffffffffffffffffffffffffffffffffffff16906020019092919080359060200190929190505050610ed7565b604051808215151515815260200191505060405180910390f35b610400600480360360408110156103ca57600080fd5b81019080803573ffffffffffffffffffffffffffffffffffffffff169060200190929190803590602001909291905050506111ed565b604051808215151515815260200191505060405180910390f35b6104466004803603602081101561043057600080fd5b81019080803590602001909291905050506114b2565b604051808215151515815260200191505060405180910390f35b6104686116bf565b604051808215151515815260200191505060405180910390f35b6104c46004803603602081101561049857600080fd5b81019080803573ffffffffffffffffffffffffffffffffffffffff1690602001909291905050506116d5565b6040518082815260200191505060405180910390f35b6104e261171e565b604051808215151515815260200191505060405180910390f35b61050461186c565b6040518080602001828103825283818151815260200191508051906020019080838360005b83811015610544578082015181840152602081019050610529565b50505050905090810190601f1680156105715780820380516001836020036101000a031916815260200191505b509250505060405180910390f35b6105cb6004803603604081101561059557600080fd5b81019080803573ffffffffffffffffffffffffffffffffffffffff1690602001909291908035906020019092919050505061190e565b604051808215151515815260200191505060405180910390f35b610631600480360360408110156105fb57600080fd5b81019080803573ffffffffffffffffffffffffffffffffffffffff16906020019092919080359060200190929190505050611be5565b604051808215151515815260200191505060405180910390f35b61068d6004803603602081101561066157600080fd5b81019080803573ffffffffffffffffffffffffffffffffffffffff169060200190929190505050611eff565b604051808215151515815260200191505060405180910390f35b610709600480360360408110156106bd57600080fd5b81019080803573ffffffffffffffffffffffffffffffffffffffff169060200190929190803573ffffffffffffffffffffffffffffffffffffffff169060200190929190505050611ff1565b6040518082815260200191505060405180910390f35b6107276120eb565b604051808215151515815260200191505060405180910390f35b61074961223a565b604051808215151515815260200191505060405180910390f35b6000600660019054906101000a900460ff16905090565b606060018054600181600116156101000203166002900480601f0160208091040260200160405190810160405280929190818152602001828054600181600116156101000203166002900480156108125780601f106107e757610100808354040283529160200191610812565b820191906000526020600020905b8154815290600101906020018083116107f557829003601f168201915b5050505050905090565b6000600460009054906101000a900473ffffffffffffffffffffffffffffffffffffffff16905090565b60006108506116bf565b156108c3576040517f08c379a00000000000000000000000000000000000000000000000000000000081526004018080602001828103825260108152602001807f5061757361626c653a207061757365640000000000000000000000000000000081525060200191505060405180910390fd5b600073ffffffffffffffffffffffffffffffffffffffff168373ffffffffffffffffffffffffffffffffffffffff161415610949576040517f08c379a00000000000000000000000000000000000000000000000000000000081526004018080602001828103825260248152602001806126246024913960400191505060405180910390fd5b600082116109a2576040517f08c379a00000000000000000000000000000000000000000000000000000000081526004018080602001828103825260248152602001806125b56024913960400191505060405180910390fd5b81600760003373ffffffffffffffffffffffffffffffffffffffff1673ffffffffffffffffffffffffffffffffffffffff168152602001908152602001600020541015610a57576040517f08c379a000000000000000000000000000000000000000000000000000000000815260040180806020018281038252601a8152602001807f4e6f7420656e6f75676820746f6b656e7320746f20616c6c6f7700000000000081525060200191505060405180910390fd5b81600860003373ffffffffffffffffffffffffffffffffffffffff1673ffffffffffffffffffffffffffffffffffffffff16815260200190815260200160002060008573ffffffffffffffffffffffffffffffffffffffff1673ffffffffffffffffffffffffffffffffffffffff168152602001908152602001600020819055506001905092915050565b6000600554905090565b6000610af66116bf565b15610b69576040517f08c379a00000000000000000000000000000000000000000000000000000000081526004018080602001828103825260108152602001807f5061757361626c653a207061757365640000000000000000000000000000000081525060200191505060405180910390fd5b600073ffffffffffffffffffffffffffffffffffffffff168473ffffffffffffffffffffffffffffffffffffffff161415610ba357600080fd5b600073ffffffffffffffffffffffffffffffffffffffff168373ffffffffffffffffffffffffffffffffffffffff161415610bdd57600080fd5b60008211610bea57600080fd5b81600860008673ffffffffffffffffffffffffffffffffffffffff1673ffffffffffffffffffffffffffffffffffffffff16815260200190815260200160002060003373ffffffffffffffffffffffffffffffffffffffff1673ffffffffffffffffffffffffffffffffffffffff168152602001908152602001600020541015610cdc576040517f08c379a00000000000000000000000000000000000000000000000000000000081526004018080602001828103825260148152602001807f4e6f7420656e6f75676820616c6c6f77616e636500000000000000000000000081525060200191505060405180910390fd5b81600760008673ffffffffffffffffffffffffffffffffffffffff1673ffffffffffffffffffffffffffffffffffffffff168152602001908152602001600020541015610d91576040517f08c379a000000000000000000000000000000000000000000000000000000000815260040180806020018281038252601d8152602001807f4e6f7420656e6f75676820746f6b656e7320746f207472616e7366657200000081525060200191505060405180910390fd5b81600860008673ffffffffffffffffffffffffffffffffffffffff1673ffffffffffffffffffffffffffffffffffffffff16815260200190815260200160002060003373ffffffffffffffffffffffffffffffffffffffff1673ffffffffffffffffffffffffffffffffffffffff1681526020019081526020016000206000828254039250508190555081600760008673ffffffffffffffffffffffffffffffffffffffff1673ffffffffffffffffffffffffffffffffffffffff1681526020019081526020016000206000828254039250508190555081600760008573ffffffffffffffffffffffffffffffffffffffff1673ffffffffffffffffffffffffffffffffffffffff16815260200190815260200160002060008282540192505081905550600190509392505050565b6000600660009054906101000a900460ff16905090565b6000610ee16116bf565b15610f54576040517f08c379a00000000000000000000000000000000000000000000000000000000081526004018080602001828103825260108152602001807f5061757361626c653a207061757365640000000000000000000000000000000081525060200191505060405180910390fd5b600073ffffffffffffffffffffffffffffffffffffffff168373ffffffffffffffffffffffffffffffffffffffff161415610fda576040517f08c379a00000000000000000000000000000000000000000000000000000000081526004018080602001828103825260228152602001806125d96022913960400191505060405180910390fd5b60008211611033576040517f08c379a00000000000000000000000000000000000000000000000000000000081526004018080602001828103825260248152602001806125b56024913960400191505060405180910390fd5b6110c282600860003373ffffffffffffffffffffffffffffffffffffffff1673ffffffffffffffffffffffffffffffffffffffff16815260200190815260200160002060008673ffffffffffffffffffffffffffffffffffffffff1673ffffffffffffffffffffffffffffffffffffffff1681526020019081526020016000205461233b90919063ffffffff16565b600760003373ffffffffffffffffffffffffffffffffffffffff1673ffffffffffffffffffffffffffffffffffffffff168152602001908152602001600020541015611159576040517f08c379a00000000000000000000000000000000000000000000000000000000081526004018080602001828103825260298152602001806125fb6029913960400191505060405180910390fd5b81600860003373ffffffffffffffffffffffffffffffffffffffff1673ffffffffffffffffffffffffffffffffffffffff16815260200190815260200160002060008573ffffffffffffffffffffffffffffffffffffffff1673ffffffffffffffffffffffffffffffffffffffff168152602001908152602001600020600082825401925050819055506001905092915050565b6000600660019054906101000a900460ff161561120957600080fd5b600073ffffffffffffffffffffffffffffffffffffffff168373ffffffffffffffffffffffffffffffffffffffff1614156112ac576040517f08c379a00000000000000000000000000000000000000000000000000000000081526004018080602001828103825260188152602001807f4d696e7420746f20746865207a65726f2061646472657373000000000000000081525060200191505060405180910390fd5b60008211611322576040517f08c379a000000000000000000000000000000000000000000000000000000000815260040180806020018281038252600e8152602001807f496e76616c696420616d6f756e7400000000000000000000000000000000000081525060200191505060405180910390fd5b600460009054906101000a900473ffffffffffffffffffffffffffffffffffffffff1673ffffffffffffffffffffffffffffffffffffffff163373ffffffffffffffffffffffffffffffffffffffff16146113e5576040517f08c379a000000000000000000000000000000000000000000000000000000000815260040180806020018281038252601c8152602001807f4f6e6c79206d696e74657220616c6c6f7720746f20646f20746869730000000081525060200191505060405180910390fd5b8160056000828254019250508190555081600760008573ffffffffffffffffffffffffffffffffffffffff1673ffffffffffffffffffffffffffffffffffffffff168152602001908152602001600020600082825401925050819055508273ffffffffffffffffffffffffffffffffffffffff16600073ffffffffffffffffffffffffffffffffffffffff167fddf252ad1be2c89b69c2b068fc378daa952ba7f163c4a11628f55a4df523b3ef846040518082815260200191505060405180910390a36001905092915050565b60006114bc6116bf565b1561152f576040517f08c379a00000000000000000000000000000000000000000000000000000000081526004018080602001828103825260108152602001807f5061757361626c653a207061757365640000000000000000000000000000000081525060200191505060405180910390fd5b600082116115a5576040517f08c379a000000000000000000000000000000000000000000000000000000000815260040180806020018281038252601e8152602001807f54727920746f206275726e203020616d6f756e74206f6620746f6b656e73000081525060200191505060405180910390fd5b6000600760003373ffffffffffffffffffffffffffffffffffffffff1673ffffffffffffffffffffffffffffffffffffffff1681526020019081526020016000205490508281101561165f576040517f08c379a000000000000000000000000000000000000000000000000000000000815260040180806020018281038252601b8152602001807f4275726e20616d6f756e7420657863656564732062616c616e6365000000000081525060200191505060405180910390fd5b828103600760003373ffffffffffffffffffffffffffffffffffffffff1673ffffffffffffffffffffffffffffffffffffffff16815260200190815260200160002081905550826005600082825403925050819055506001915050919050565b60008060009054906101000a900460ff16905090565b6000600760008373ffffffffffffffffffffffffffffffffffffffff1673ffffffffffffffffffffffffffffffffffffffff168152602001908152602001600020549050919050565b60006117286116bf565b61179a576040517f08c379a00000000000000000000000000000000000000000000000000000000081526004018080602001828103825260148152602001807f5061757361626c653a206e6f742070617573656400000000000000000000000081525060200191505060405180910390fd5b600360009054906101000a900473ffffffffffffffffffffffffffffffffffffffff1673ffffffffffffffffffffffffffffffffffffffff163273ffffffffffffffffffffffffffffffffffffffff161461185d576040517f08c379a000000000000000000000000000000000000000000000000000000000815260040180806020018281038252601c8152602001807f4f6e6c79206f776e65722063616e20756e706175736520746f6b656e0000000081525060200191505060405180910390fd5b611865612358565b6001905090565b606060028054600181600116156101000203166002900480601f0160208091040260200160405190810160405280929190818152602001828054600181600116156101000203166002900480156119045780601f106118d957610100808354040283529160200191611904565b820191906000526020600020905b8154815290600101906020018083116118e757829003601f168201915b5050505050905090565b60006119186116bf565b1561198b576040517f08c379a00000000000000000000000000000000000000000000000000000000081526004018080602001828103825260108152602001807f5061757361626c653a207061757365640000000000000000000000000000000081525060200191505060405180910390fd5b600073ffffffffffffffffffffffffffffffffffffffff168373ffffffffffffffffffffffffffffffffffffffff161415611a11576040517f08c379a00000000000000000000000000000000000000000000000000000000081526004018080602001828103825260228152602001806125d96022913960400191505060405180910390fd5b60008211611a6a576040517f08c379a00000000000000000000000000000000000000000000000000000000081526004018080602001828103825260248152602001806125b56024913960400191505060405180910390fd5b6000611afb83600860003373ffffffffffffffffffffffffffffffffffffffff1673ffffffffffffffffffffffffffffffffffffffff16815260200190815260200160002060008773ffffffffffffffffffffffffffffffffffffffff1673ffffffffffffffffffffffffffffffffffffffff1681526020019081526020016000205461245190919063ffffffff16565b11611b51576040517f08c379a00000000000000000000000000000000000000000000000000000000081526004018080602001828103825260238152602001806126486023913960400191505060405180910390fd5b81600860003373ffffffffffffffffffffffffffffffffffffffff1673ffffffffffffffffffffffffffffffffffffffff16815260200190815260200160002060008573ffffffffffffffffffffffffffffffffffffffff1673ffffffffffffffffffffffffffffffffffffffff168152602001908152602001600020600082825403925050819055506001905092915050565b6000611bef6116bf565b15611c62576040517f08c379a00000000000000000000000000000000000000000000000000000000081526004018080602001828103825260108152602001807f5061757361626c653a207061757365640000000000000000000000000000000081525060200191505060405180910390fd5b600073ffffffffffffffffffffffffffffffffffffffff168373ffffffffffffffffffffffffffffffffffffffff161415611ce8576040517f08c379a00000000000000000000000000000000000000000000000000000000081526004018080602001828103825260258152602001806125696025913960400191505060405180910390fd5b81600760003373ffffffffffffffffffffffffffffffffffffffff1673ffffffffffffffffffffffffffffffffffffffff168152602001908152602001600020541015611d9d576040517f08c379a00000000000000000000000000000000000000000000000000000000081526004018080602001828103825260128152602001807f4e6f7420656e6f7567682062616c616e6365000000000000000000000000000081525060200191505060405180910390fd5b60008211611df6576040517f08c379a00000000000000000000000000000000000000000000000000000000081526004018080602001828103825260248152602001806125b56024913960400191505060405180910390fd5b81600760003373ffffffffffffffffffffffffffffffffffffffff1673ffffffffffffffffffffffffffffffffffffffff1681526020019081526020016000206000828254039250508190555081600760008573ffffffffffffffffffffffffffffffffffffffff1673ffffffffffffffffffffffffffffffffffffffff168152602001908152602001600020600082825401925050819055508273ffffffffffffffffffffffffffffffffffffffff163373ffffffffffffffffffffffffffffffffffffffff167fddf252ad1be2c89b69c2b068fc378daa952ba7f163c4a11628f55a4df523b3ef846040518082815260200191505060405180910390a36001905092915050565b6000600460009054906101000a900473ffffffffffffffffffffffffffffffffffffffff1673ffffffffffffffffffffffffffffffffffffffff163373ffffffffffffffffffffffffffffffffffffffff1614611fa7576040517f08c379a000000000000000000000000000000000000000000000000000000000815260040180806020018281038252602781526020018061258e6027913960400191505060405180910390fd5b81600460006101000a81548173ffffffffffffffffffffffffffffffffffffffff021916908373ffffffffffffffffffffffffffffffffffffffff16021790555060019050919050565b60008073ffffffffffffffffffffffffffffffffffffffff168373ffffffffffffffffffffffffffffffffffffffff16141561202c57600080fd5b600073ffffffffffffffffffffffffffffffffffffffff168273ffffffffffffffffffffffffffffffffffffffff16141561206657600080fd5b600860008473ffffffffffffffffffffffffffffffffffffffff1673ffffffffffffffffffffffffffffffffffffffff16815260200190815260200160002060008373ffffffffffffffffffffffffffffffffffffffff1673ffffffffffffffffffffffffffffffffffffffff16815260200190815260200160002054905092915050565b60006120f56116bf565b15612168576040517f08c379a00000000000000000000000000000000000000000000000000000000081526004018080602001828103825260108152602001807f5061757361626c653a207061757365640000000000000000000000000000000081525060200191505060405180910390fd5b600360009054906101000a900473ffffffffffffffffffffffffffffffffffffffff1673ffffffffffffffffffffffffffffffffffffffff163373ffffffffffffffffffffffffffffffffffffffff161461222b576040517f08c379a000000000000000000000000000000000000000000000000000000000815260040180806020018281038252601a8152602001807f4f6e6c79206f776e65722063616e20706175736520746f6b656e00000000000081525060200191505060405180910390fd5b61223361246e565b6001905090565b6000600660019054906101000a900460ff161561225657600080fd5b600360009054906101000a900473ffffffffffffffffffffffffffffffffffffffff1673ffffffffffffffffffffffffffffffffffffffff163273ffffffffffffffffffffffffffffffffffffffff1614612319576040517f08c379a000000000000000000000000000000000000000000000000000000000815260040180806020018281038252601a8152602001807f4f6e6c79206f776e65722063616e2066696e697368206d696e7400000000000081525060200191505060405180910390fd5b6001600660016101000a81548160ff0219169083151502179055506001905090565b600081830190508281101561234f57600080fd5b80905092915050565b6123606116bf565b6123d2576040517f08c379a00000000000000000000000000000000000000000000000000000000081526004018080602001828103825260148152602001807f5061757361626c653a206e6f742070617573656400000000000000000000000081525060200191505060405180910390fd5b60008060006101000a81548160ff0219169083151502179055507f5db9ee0a495bf2e6ff9c91a7834c1ba4fdd244a5e8aa4e537bd38aeae4b073aa33604051808273ffffffffffffffffffffffffffffffffffffffff1673ffffffffffffffffffffffffffffffffffffffff16815260200191505060405180910390a1565b60008282111561246057600080fd5b818303905080905092915050565b6124766116bf565b156124e9576040517f08c379a00000000000000000000000000000000000000000000000000000000081526004018080602001828103825260108152602001807f5061757361626c653a207061757365640000000000000000000000000000000081525060200191505060405180910390fd5b60016000806101000a81548160ff0219169083151502179055507f62e78cea01bee320cd4e420270b5ea74000d11b0c9f74754ebdbfc544b05a25833604051808273ffffffffffffffffffffffffffffffffffffffff1673ffffffffffffffffffffffffffffffffffffffff16815260200191505060405180910390a156fe5472616e7366657220746f20656d7074792061646472657373206e6f7420616c6c6f7765644572726f722c206f6e6c79206d696e7465722063616e2070617373206d696e74657220726f6c654e756d626572206f6620746f6b656e73206d757374206265206d6f7265207468656e2030416c6c6f7720746f20656d7074792061646472657373206e6f7420616c6c6f7765644e6f7420656e6f75676820746f6b656e7320746f20616c6c6f7720616674657220696e637265617365417070726f766520746f20656d7074792061646472657373206e6f7420616c6c6f776564416c6c6f77616e6365206166746572206465637265617365206265636f6d65203c2030a265627a7a72315820ea73c22ff0f3b6410e20490fee8405e660e8d9cdc576b49e3bed8913196314ad64736f6c63430005100032",
  "source": "// SPDX-License-Identifier: MIT\r\npragma solidity 0.5.16;\r\n\r\nimport \"./SafeMath.sol\";\r\nimport \"./Pausable.sol\";\r\n\r\n/// @title   \r\n/// @notice     ERC-20\r\n///      \r\ncontract Token is Pausable{\r\n\r\n    using SafeMath for uint256;\r\n\r\n    string private _name; ///  \r\n    string private _symbol; ///  \r\n\r\n    address private owner;  ///  \r\n    address private _minter;  ///  \r\n\r\n    uint256 private _totalSupply; ///   \r\n    uint8 private _decimals;  ///   \r\n\r\n    bool private _mintingFinished = false;  ///   \r\n\r\n    /// @notice  \r\n    mapping (address => uint256) private balances;\r\n    \r\n    /// @notice      \r\n    mapping (address => mapping (address => uint256)) private _allowances;\r\n\r\n    event Transfer(address indexed _from, address indexed _to, uint256 _value); \r\n    event Approval(address indexed _owner, address indexed _spender, uint256 _value); \r\n\r\n    constructor(string memory name_, string memory symbol_, uint8 decimals_) Pausable() public {\r\n        _name = name_;\r\n        _symbol = symbol_;\r\n        _decimals = decimals_;\r\n        owner = msg.sender;\r\n        _minter = msg.sender; //only initial\r\n    }\r\n\r\n    /// @notice   \r\n    modifier canMint() {\r\n        require(!_mintingFinished);\r\n        _;\r\n    }\r\n    \r\n    /// @notice    \r\n    modifier onlyOwner() {\r\n        require(msg.sender == owner);\r\n        _;\r\n    }\r\n    \r\n    /// @notice   \r\n    function balanceOf(address _owner) public view returns (uint256 balance) {\r\n        return balances[_owner];        \r\n    }\r\n    \r\n    /// @notice   \r\n    function name() public view returns (string memory) {\r\n        return _name;\r\n    }\r\n    \r\n     /// @notice   \r\n    function symbol() public view returns (string memory) {\r\n        return _symbol;\r\n    }\r\n\r\n     /// @notice  decimals\r\n    function decimals() public view returns (uint8) {\r\n        return _decimals;\r\n    }\r\n\r\n    /// @notice    \r\n    function totalSupply() public view returns (uint256) {\r\n        return _totalSupply;\r\n    }\r\n\r\n    /// @notice   \r\n    function minter() public view returns (address) {\r\n        return _minter;\r\n    }\r\n\r\n    /// @notice      \r\n    function mintingFinished() public view returns (bool) {\r\n        return _mintingFinished;\r\n    }\r\n    \r\n    /// @notice          \r\n    /// @param  _owner  \r\n    /// @param  _spender  ,       \r\n    function allowance(address _owner, address _spender) public view returns (uint256 remaining) {\r\n        require(_owner != address(0));\r\n        require(_spender != address(0));\r\n        return _allowances[_owner][_spender];\r\n    }\r\n\r\n    /// @notice   \r\n    /// @param  _to   \r\n    function passMinterRole(address _to) public returns (bool success) {\r\n        require(msg.sender == _minter, 'Error, only minter can pass minter role');\r\n        _minter = _to;\r\n        return true;\r\n    }\r\n    \r\n    /// @notice  \r\n    /// @param  _account   \r\n    /// @param  _amount    \r\n    function mint(address _account, uint256 _amount) public canMint returns (bool success) {\r\n        require(_account != address(0), \"Mint to the zero address\");\r\n        require(_amount > 0, \"Invalid amount\");\r\n        require(msg.sender == _minter, \"Only minter allow to do this\");\r\n        _totalSupply += _amount;\r\n        balances[_account] += _amount;\r\n        \r\n        emit Transfer(address(0), _account, _amount);\r\n        return true;\r\n    }\r\n\r\n    /// @notice     \r\n    function pause_token() public whenNotPaused returns (bool success) {\r\n        require(msg.sender == owner, \"Only owner can pause token\");\r\n        _pause();\r\n        return true;\r\n    }\r\n    \r\n    /// @notice     \r\n    function unpause_token() public whenPaused returns (bool success) {\r\n        require(tx.origin == owner, \"Only owner can unpause token\");\r\n        _unpause();\r\n        return true;\r\n    }\r\n    \r\n    /// @notice  \r\n    /// @param  _amount    \r\n    function burn(uint _amount) whenNotPaused public returns (bool success){\r\n        require(_amount > 0, \"Try to burn 0 amount of tokens\");\r\n        uint256 accountBalance = balances[msg.sender];\r\n        require(accountBalance >= _amount, \"Burn amount exceeds balance\");\r\n        balances[msg.sender] = accountBalance - _amount;\r\n        _totalSupply -= _amount;\r\n\r\n        return true;\r\n    }\r\n\r\n    /// @notice  \r\n    /// @param  _to  \r\n    /// @param  _value     \r\n    function transfer(address _to, uint256 _value) public whenNotPaused returns (bool result) {\r\n        require(_to != address(0), \"Transfer to empty address not allowed\");\r\n        require(balances[msg.sender] >= _value, \"Not enough balance\");\r\n        require(_value > 0, \"Number of tokens must be more then 0\");\r\n\r\n        balances[msg.sender] -= _value;\r\n        balances[_to] += _value;\r\n        \r\n        emit Transfer(msg.sender, _to, _value);\r\n        return true;\r\n    }\r\n\r\n    /// @notice      \r\n    /// @param  _from  \r\n    /// @param  _to  \r\n    /// @param  _amount     \r\n    function transferFrom(address _from, address _to, uint256 _amount) public whenNotPaused returns (bool success) {\r\n        require(_from != address(0));\r\n        require(_to != address(0));\r\n        require(_amount > 0);\r\n        require(_allowances[_from][msg.sender] >= _amount, \"Not enough allowance\");\r\n        require(balances[_from] >= _amount, \"Not enough tokens to transfer\");\r\n\r\n        _allowances[_from][msg.sender] -= _amount;\r\n        balances[_from] -= _amount;\r\n        balances[_to] += _amount;\r\n        return true;\r\n    }\r\n\r\n    /// @notice     \r\n    /// @param  _spender     \r\n    /// @param  _value     \r\n    function approve(address _spender, uint256 _value) public whenNotPaused returns (bool success) {\r\n        require(_spender != address(0), \"Approve to empty address not allowed\");\r\n        require(_value > 0, \"Number of tokens must be more then 0\");\r\n        require(balances[msg.sender] >= _value, \"Not enough tokens to allow\");\r\n        _allowances[msg.sender][_spender] = _value;\r\n        return true;\r\n    }\r\n\r\n    /// @notice       \r\n    /// @param  _to     \r\n    /// @param  _amount ,    \r\n    function increaseAllowance(address _to, uint256 _amount) public whenNotPaused returns (bool success) {\r\n        require(_to != address(0), \"Allow to empty address not allowed\");\r\n        require(_amount > 0, \"Number of tokens must be more then 0\");\r\n        require(balances[msg.sender] >= _allowances[msg.sender][_to].add(_amount), \"Not enough tokens to allow after increase\");\r\n        \r\n        _allowances[msg.sender][_to] += _amount;\r\n        return true;\r\n    }\r\n\r\n    /// @notice       \r\n    /// @param  _to     \r\n    /// @param  _amount ,    \r\n    function decreaseAllowance(address _to, uint256 _amount) public whenNotPaused returns (bool success) {\r\n        require(_to != address(0), \"Allow to empty address not allowed\");\r\n        require(_amount > 0, \"Number of tokens must be more then 0\");\r\n        require(_allowances[msg.sender][_to].sub(_amount) > 0, \"Allowance after decrease become < 0\");\r\n\r\n        _allowances[msg.sender][_to] -= _amount;\r\n        return true;\r\n    }\r\n    \r\n    /// @notice   \r\n    function finishMint() public canMint() returns (bool success) {\r\n        require(tx.origin == owner, \"Only owner can finish mint\");\r\n        _mintingFinished = true;\r\n        return true;\r\n    }\r\n}\r\n",
  "sourcePath": "C:\\Users\\ILYA\\Desktop\\Vezdekod\\ico\\contracts\\Token.sol",
  "compiler": {
    "name": "solc",
    "version": "0.5.16+commit.9c3226ce.Emscripten.clang"
  },
  "schemaVersion": "3.3.3",
  "updatedAt": "2021-05-23T04:34:56.220Z",
  "devdoc": {
    "methods": {
      "allowance(address,address)": {
        "params": {
          "_owner": " ",
          "_spender": " ,       "
        }
      },
      "approve(address,uint256)": {
        "params": {
          "_spender": "    ",
          "_value": "   "
        }
      },
      "burn(uint256)": {
        "params": {
          "_amount": "  "
        }
      },
      "decreaseAllowance(address,uint256)": {
        "params": {
          "_amount": ",    ",
          "_to": "    "
        }
      },
      "increaseAllowance(address,uint256)": {
        "params": {
          "_amount": ",    ",
          "_to": "    "
        }
      },
      "mint(address,uint256)": {
        "params": {
          "_account": "  ",
          "_amount": "  "
        }
      },
      "passMinterRole(address)": {
        "params": {
          "_to": "  "
        }
      },
      "transfer(address,uint256)": {
        "params": {
          "_to": " ",
          "_value": "   "
        }
      },
      "transferFrom(address,address,uint256)": {
        "params": {
          "_amount": "   ",
          "_from": " ",
          "_to": " "
        }
      }
    },
    "title": " "
  },
  "userdoc": {
    "methods": {
      "allowance(address,address)": {
        "notice": "         "
      },
      "approve(address,uint256)": {
        "notice": "    "
      },
      "balanceOf(address)": {
        "notice": "  "
      },
      "burn(uint256)": {
        "notice": " "
      },
      "decimals()": {
        "notice": " decimals"
      },
      "decreaseAllowance(address,uint256)": {
        "notice": "      "
      },
      "finishMint()": {
        "notice": "  "
      },
      "increaseAllowance(address,uint256)": {
        "notice": "      "
      },
      "mint(address,uint256)": {
        "notice": " "
      },
      "minter()": {
        "notice": "  "
      },
      "mintingFinished()": {
        "notice": "     "
      },
      "name()": {
        "notice": "  "
      },
      "passMinterRole(address)": {
        "notice": "  "
      },
      "pause_token()": {
        "notice": "    "
      },
      "symbol()": {
        "notice": "  "
      },
      "totalSupply()": {
        "notice": "   "
      },
      "transfer(address,uint256)": {
        "notice": " "
      },
      "transferFrom(address,address,uint256)": {
        "notice": "     "
      },
      "unpause_token()": {
        "notice": "    "
      }
    },
    "notice": "    ERC-20      "
  }
}